:060000000A128A11E42F30
:100BC4000034403414345434F70077088312031388
:100BD400860007140711871401300A128A11292686
:100BE4008312031387100800F70077088312031396
:100BF400860007100711871401300A128A1129266A
:100C0400831203138710080001300A128A1129265F
:100C14000A128A1138300A128A11F6250A128A1128
:100C240008300A128A11F6250A128A1101300A12B2
:100C34008A11F6250A128A1106300A128A11F6253B
:100C44000A128A110F300A128A11F6250800F200DE
:100C54007208F000F1017008F3007108F4007408E0
:100C6400730403190800F501F6017608803AFF00C1
:100C740083307F02031D402EE83075020318532E83
:100C84000130F5070318F60A0030F6077608803AB3
:100C9400FF0083307F02031D512EE8307502031CD0
:100CA400422EFF30F3070318F40AFF30F407312E05
:100CB400F601F31F642EF209F309F20A0319F30A89
:100CC400F601F60AF11F6B2EF009F109F00A031977
:100CD400F10A710870040319982EF501F50AF11B45
:100CE4007F2E01300310F00DF10DFF3E031D742E15
:100CF4000130F4007408F507712E71087302031DA6
:100D0400852E70087202031C8D2E7008F202710881
:100D1400031CF303F30201300310F10CF00CFF3E4B
:100D2400031D8E2E0130F502031D7F2E7608031954
:100D3400A02EF209F309F20A0319F30A7308F10168
:100D4400F1077208F001F0070800F601F11FB12E57
:100D5400F009F109F00A0319F10AF601F60AF31F82
:100D6400BC2EF209F309F20A0319F30A0130F40064
:100D74007408F606F701F801710870040319F32EDC
:100D8400F501F50AF11BD22E01300310F00DF10D1F
:100D9400FF3E031DC72E0130F4007408F507C42E6E
:100DA40001300310F70DF80DFF3E031DD32E71081B
:100DB4007302031DDF2E70087202031CE82E7008F4
:100DC400F2027108031CF303F302771401300310D9
:100DD400F10CF00CFF3E031DE92E0130F502031D5A
:100DE400D22E76080319FB2EF709F809F70A03191E
:100DF400F80A7808F101F1077708F001F007080014
:100E040083160313850186018701FF3088000A12C7
:100E14008A1106260A128A11831203132F08A300CB
:100E24002E08A2002D08A1002C08A000A901AA01E7
:100E340080300A128A11F6250A128A1183120313CA
:100E4400081E202F08080F39F9007908A800AB0103
:100E54000130A6000030A7004D2F3130462F32302C
:100E6400462F3330462F3430462F3530462F363018
:100E7400462F3730462F3830462F3930462F2A3008
:100E8400462F3030462F2330F9007908AB00732FFA
:100E9400A601A701732F2808003A03192F2F013A3E
:100EA4000319312F033A0319332F063A0319352F47
:100EB400013A0319372F033A0319392F0E3A03194C
:100EC4003B2F013A03193D2F033A03193F2F063AEA
:100ED4000319412F013A0319432F033A0319452FEC
:100EE4004A2F270826040319D92F1430F0000030A4
:100EF400F1002A08F301F3072908F201F2070A12A4
:100F04008A115A260A128A1171087004031DAE2F21
:100F14001430F0000030F100831203132A08F301A7
:100F2400F3072908F201F2070A128A11A7260A1206
:100F34008A11710883120313A501A5077008A4017F
:100F4400A4072408203E84008313000880380A1272
:100F54008A11F6250A128A11831203132B080A1226
:100F64008A11E6250A128A11013083120313A90794
:100F74000318AA0A0030AA07503029062A04031DC0
:100F8400D92F01300A128A11F6250A128A11831206
:100F94000313A901AA0102300A128A1129260A128E
:100FA4008A1180300A128A11F6250A128A11323007
:100FB4000A128A1129260A128A1183120313081AA3
:100FC400202FDF2F831203130A128A11E2250A123B
:100FD4008A11AC000A128A11E3250A128A11AD00A3
:100FE4000A128A11E4250A128A11AE000A128A1121
:0C0FF400E525AF0083010A128A11022FCC
:02400E0071FF40
:00000001FF
