:060000000A128A11FC2F18
:100E5800F2007208F000F1017008F3007108F40064
:100E68007408730403190800F501F6017608803A3E
:100E7800FF0083307F02031D432FE83075020318FB
:100E8800562F0130F5070318F60A0030F6077608E2
:100E9800803AFF0083307F02031D542FE83075022B
:100EA800031C452FFF30F3070318F40AFF30F4073B
:100EB800342F0630831603139F0086018312031311
:100EC8008601013083120313860064300A128A11E6
:100ED8002C270A128A110230831203138600643009
:100EE8000A128A112C270A128A110430831203135A
:100EF8008600E8300A128A112C270A128A11083053
:100F080083120313860064300A128A112C270A12EE
:100F18008A11103083120313860064300A128A1172
:100F28002C270A128A11203083120313860064309A
:100F38000A128A112C270A128A11403083120313CD
:100F4800860064300A128A112C270A128A1180300E
:100F580083120313860064300A128A112C270A129E
:100F68008A11403083120313860064300A128A11F2
:100F78002C270A128A11203083120313860064304A
:100F88000A128A112C270A128A11103083120313AD
:100F9800860064300A128A112C270A128A11083036
:100FA80083120313860064300A128A112C270A124E
:100FB8008A11043083120313860064300A128A11DE
:100FC8002C270A128A110230831203138600643018
:100FD8000A128A112C270A128A110130831203136C
:100FE800860064300A128A112C270A128A11652F8A
:080FF80083010A128A115D2F2A
:02400E0071FF40
:00000001FF
