:100000000A128A11F82FFF1B0D2883137F188317FC
:100010000008840A0319FF0A080000308A00040857
:10002000840A82070034013400340A340034643412
:100030000034E834033410342734543465346D34D8
:1000400070346534723461347434753472346534A8
:100050003A3420340034483475346D3469346434AF
:100060006934743479343A342034003425346434B7
:1000700025342534203420340034253464342034AD
:1000800043342034203400340A128A115920831654
:100090000313911408000A128A11592083160313BE
:1000A000111408000A128A1159208316031311151E
:1000B00008008316031311081F390319141959284E
:1000C0000800F0000A128A115920700883120313E5
:1000D0009300080083160313871507162830831230
:1000E00003139400831603139101940109309300C4
:1000F0000800F70077088312031386000810081120
:1001000088140130F0000030F1000A128A113C21FD
:100110008312031388100800F70077088312031373
:1001200086000814081188140130F0000030F10036
:100130000A128A113C2183120313881008007808E0
:10014000F0007908F100F2018E30FB007B08F3002B
:10015000F4010A128A1125227008F8007108F900CA
:100160007208FA0008008A300A128A1179200A12ED
:100170008A11243083120313AF002F08A0006608F1
:10018000A201A2076508A101A10730300A128A1155
:10019000A6240A128A113030F8000030F9000A1241
:1001A0008A11F3200800CD300A128A1179200A1230
:1001B0008A112B3083120313AF002F08A0006808A8
:1001C000A201A2076708A101A10730300A128A1113
:1001D000A6240A128A113030F8000030F9000A1201
:1001E0008A11F3200800790883120313FF007808AE
:1001F00084000A128A1103200A128A110038031996
:100200000800790883120313FF00780884000A129B
:100210008A1103200A128A110A128A118C200A12EA
:100220008A110130F8070318F90AF328F1000A12BD
:100230008A1159200A128A118316031391150A1282
:100240008A1159200A128A11831203131308F0002D
:100250007008F2000A128A1159200A128A11F10854
:10026000031D3629831603139116392983160313A8
:100270009112111672080800F301F4017408803A13
:10028000F2007108803A7202031D48297008730257
:1002900003180800F501F6017608803AFF00813066
:1002A0007F02031D5529F4307502031868290130B7
:1002B000F5070318F60A0030F6077608803AFF00C3
:1002C00081307F02031D6629F4307502031C572913
:1002D0000130F3070318F40A0030F4073E297908C7
:1002E000780403199C29FD01FD0AF91B83290130BB
:1002F0000310F80DF90DFF3E031D78290130FC00B5
:100300007C08FD07752979087B02031D8929780877
:100310007A02031C91297808FA027908031CFB036E
:10032000FB0201300310F90CF80CFF3E031D92296B
:100330000130FD02031D83297B08F901F9077A08C2
:10034000F801F8070800F501F601710870040319B7
:10035000DA29F701F70AF11BB92901300310F00D72
:10036000F10DFF3E031DAE290130F4007408F707BC
:10037000AB2901300310F50DF60DFF3E031DBA2920
:1003800071087302031DC62970087202031CCF296D
:100390007008F2027108031CF303F30275140130B4
:1003A0000310F10CF00CFF3E031DD0290130F702C1
:1003B000031DB9297608F101F1077508F001F0076E
:1003C00008001430F0000030F1000A128A113C21BC
:1003D0000A128A1138300A128A1179200A128A11F7
:1003E00008300A128A1179200A128A1101300A1281
:1003F0008A1179200A128A1106300A128A1179208C
:100400000A128A110C300A128A1179200A128A11F2
:1004100080300A128A1179200A128A111930F800E4
:100420008030F9000A128A11F3200A128A11C030B2
:100430000A128A1179200A128A110B30F8008030D2
:10044000F9000A128A11F3200800730803192D2AF3
:10045000720871047004031D402A0030F00000305F
:10046000F1000030F20008000130F5007508F307D4
:1004700001300310F20CF10CF00CFF3E031D392A81
:10048000FE30720503195B2A342A0130F500750825
:10049000F3070130F007003003180130F107003096
:1004A00003180130F20701300310F20CF10CF00CCC
:1004B000FF3E031D542AFF30720503196A2A452A9C
:1004C0000130F30201300310F00DF10DF20DFF3E8B
:1004D000031D632AF11F602A7318742AFF30F00588
:1004E0007F30F105FF30F2050310F30C7308F500BF
:1004F000F601F70110300310F50DF60DF70DFF3E74
:10050000031D7B2A7508F0047608F1047708F204CD
:10051000740803190800F2170800831203134D082A
:10052000D1004E08D2004F08D3000310520D530DD6
:10053000D4005408DA00DA08031DA72A0030D000DE
:100540000030CF000030CE000030CD0008004D0854
:10055000D1004E08D2004F08D30017300310D30C3F
:10056000D20CD10CFF3E031DAE2A5108D400540812
:10057000D500CE17FF30CD05FF30CE050030CF05BA
:100580004D08D6004E08D7004F08D800D9018E304C
:10059000DA02DA1FE92A5A08803A8F3E0318D92A6C
:1005A0000030D0000030CF000030CE000030CD0051
:1005B000080001300310D90CD80CD70CD60CFF3E24
:1005C000031DDA2A0130D1005108DA070319042B80
:1005D000D92A18305A02031C012B0030D0000030F9
:1005E000CF000030CE000030CD0008000130D10037
:1005F0000310D60DD70DD80DD90DD10BF82A013027
:10060000DA02DA08031DF62A55080319122BD60957
:10061000D709D809D909D60A0319D70A0319D80A5C
:100620000319D90A5908D0005808CF005708CE003E
:100630005608CD000800831203132308A6002408DF
:10064000A7002508A8000310270D280DA9002908D8
:10065000AE00AE08031D332B0030A0000030A10017
:100660000030A20008002008A6002108A7002208E8
:10067000A8000310270D280DA9002908AF00AF0816
:10068000031D492B0030A0000030A1000030A20063
:1006900008000030AB000030AC000030AD00893005
:1006A0002F07A6002608AE022308A6002408A700EC
:1006B0002508A80010300310A80CA70CA60CFF3EBC
:1006C000031D5B2B2608A9002908AF002008A600FF
:1006D0002108A7002208A80010300310A80CA70CBE
:1006E000A60CFF3E031D6D2B2608A9002908AF06A6
:1006F0008030A6002608AF05A417FF30A305FF3001
:10070000A4050030A505A117FF30A005FF30A10505
:100710000030A2051830A6002608AA0001300310F8
:10072000AB0DAC0DAD0DFF3E031D8F2B2208250236
:10073000031DA02B21082402031DA02B2008230247
:10074000031CAD2B2008A3022108031C210FA402C7
:100750002208031C220AA5022B1401300310A30D4A
:10076000A40DA50DFF3E031DAE2B0130AA02031DF3
:100770008E2B2B08F0002C08F1002D08F2002E081B
:10078000A6002608F3002F08A7002708F4000A1285
:100790008A112522700883120313A0007108A1009A
:1007A0007208A2000800831203133008B600310853
:1007B000B7003208B8000310370D380DB9003908FA
:1007C000BA00BA08031DEB2B0030B0000030B100B6
:1007D0000030B20008003308B6003408B70035080E
:1007E000B8000310370D380DB9003908BF00BF0835
:1007F000031D012C0030B0000030B1000030B20009
:1008000008003F087B3EB6003608BA073008B6003D
:100810003108B7003208B80010300310B80CB70C1C
:10082000B60CFF3E031D0D2C3608B9003908BF0079
:100830003308B6003408B7003508B800103003108C
:10084000B80CB70CB60CFF3E031D1F2C3608B900C0
:100850003908BF068030B6003608BF05B117B41797
:10086000FF30B305FF30B4050030B5050030BB00E4
:100870000030BC000030BD000730B6003608BE00B6
:10088000301C502C3308BB07340803110318340AFA
:10089000031DBC07350803110318350A031DBD07E6
:1008A00001300310B20CB10CB00CFF3E031D512CF3
:1008B00001300310B30DB40DB50DFF3E031D592CCF
:1008C0000130BE02031D402C0930B6003608BE00C0
:1008D000301C782C3308BB07340803110318340A82
:1008E000031DBC07350803110318350A031DBD0796
:1008F00001300310B20CB10CB00CFF3E031D792C7B
:1009000001300310BD0CBC0CBB0CFF3E031D812C41
:100910000130BE02031D682C3B08F0003C08F100CA
:100920003D08F2003A08B6003608F3003F08B70069
:100930003708F4000A128A11252270088312031363
:10094000B0007108B1007208B200080083120313EE
:10095000AD002130A3002308A600B92C2E08A30067
:100960002D0884002308831380000130A30023088E
:10097000AD070130A007FF30200784000A128A115A
:100980000D200A128A11A3002308AE00AE08031935
:100990007A2D2E08253A031DAE2CA7010130A007A1
:1009A000FF30200784000A128A110D200A128A11D2
:1009B000AE00003A03197A2D643A0319E32C0D3A7C
:1009C0000319E32CAE2C2608840083130008A90029
:1009D000840A0008AA000230A3002308A607AA1F61
:1009E000FA2C0330A3002308A704A909AA09A90A1D
:1009F0000319AA0AAE01AE0A2E08053A0319212DE1
:100A00002E08A3002307013E84000A128A110D203C
:100A10000A128A11A4000A128A110D200A128A11E0
:100A2000A50025082A02031D172D24082902031CEE
:100A3000212D0130A3002308AE072E08053A031D1F
:100A4000002D270803390319302D2D30A3002D0860
:100A500084002308831380000130A3002308AD071E
:100A60002E08A3002308A800FF30A3002308A8072E
:100A70002808FF3A0319B92C0A30F8000030F900B1
:100A80002808A3002307013E84000A128A110D20C2
:100A90000A128A11F0000A128A110D200A128A1114
:100AA000F1002A08F301F3072908F201F2070A12FC
:100AB0008A11A3210A128A117108FB01FB07700831
:100AC000FA01FA070A128A116F210A128A117808AC
:100AD000303E83120313A4002408AE002E08A300A6
:100AE0002D0884002308831380000130A30023080D
:100AF000AD07342D2D088400831380010800831274
:100B000003134008C6004108C7004208C80003108C
:100B1000470D480DC9004908CC004308C6004408E9
:100B2000C7004508C8000310470D480DC900490813
:100B3000CB004C080319A82D4B084C020318AF2D0D
:100B40004C03FF3A4B07C60019304602031CAF2D79
:100B50004308C0004408C1004508C20008004B0813
:100B6000031908004C084B020318BE2D4B03FF3A33
:100B70004C07C60019304602031808000630C600AC
:100B80004608CA00C21BCA17C51B4A17C117FF3047
:100B9000C005FF30C1050030C205C417FF30C305D2
:100BA000FF30C4050030C5054B084C020318FE2D6C
:100BB00001300310C30DC40DC50DFF3E031DD92D1B
:100BC0000130CB024B084C060319F92D0130CA0243
:100BD0004A0807390319F92DD82D01300310C20C2A
:100BE000C10CC00CFF3E031DEE2D0130C6004608AF
:100BF000CC074C084B060319272EED2D4C084B0251
:100C00000318272E01300310C00DC10DC20DFF3E89
:100C1000031D032E0130CC024B084C060319232E72
:100C20000130CA024A0807390319232E022E013067
:100C30000310C50CC40CC30CFF3E031D182E01305D
:100C4000C6004608CB074C084B06031D172ECA1FCB
:100C5000392EFF30C006FF30C106FF30C20601301A
:100C6000C007003003180130C107003003180130FD
:100C7000C2074A1F4B2EFF30C306FF30C406FF30A9
:100C8000C5060130C307003003180130C407003027
:100C900003180130C507CA014008C3074108031102
:100CA0000318410A031DC407420803110318420A2E
:100CB000031DC507C51F6E2EFF30C306FF30C406D7
:100CC000FF30C5060130C307003003180130C407E8
:100CD000003003180130C507CA01CA0A4308F000F2
:100CE0004408F1004508F2004C08C6004608F3002D
:100CF0004A08C7004708F4000A128A112522700822
:100D000083120313C0007108C1007208C2000800FA
:100D10008316031386018801831203138601880159
:100D20000A128A116A200A128A110A128A11E12112
:100D30000A128A110A128A114B200A128A11803073
:100D40000A128A1161200A128A11E5300A128A11E8
:100D500061200A128A110A128A1144200A128A1189
:100D600081300A128A1161200A128A1101300A1296
:100D70008A1116210A128A1183120313DB005B0801
:100D8000E30000300A128A1116210A128A11831216
:100D90000313DB005B08E4000A128A1152200A12D6
:100DA0008A11831203136408DB00DC016308DD0091
:100DB000DE015D08DE00DD015B085D04DF005C082C
:100DC0005E04E000FC30DF05FF30E0056008F9015B
:100DD000F9075F08F801F8070A128A119F200A1222
:100DE0008A11780883120313A3007908A4007A08F3
:100DF000A5000030A0008030A1004730A2000A12F8
:100E00008A111B230A128A11831203132008B300CC
:100E10002108B4002208B5000030B000FA30B1005B
:100E20004230B2000A128A11D3230A128A118312A5
:100E300003133008C3003108C4003208C500003075
:100E4000C000C030C100C030C2000A128A117F2524
:100E50000A128A11831203134008CD004108CE0004
:100E60004208CF000A128A118D220A128A118312B7
:100E700003134E08E601E6074D08E501E5070A12EF
:100E80008A114B200A128A1180300A128A116120BD
:100E90000A128A11E3300A128A1161200A128A1199
:100EA0000A128A1144200A128A1181300A128A1108
:100EB00061200A128A1101300A128A1116210A12BF
:100EC0008A1183120313DB005B08E30000300A126F
:100ED0008A1116210A128A1183120313DB005B08A0
:100EE000E4000A128A1152200A128A118312031393
:100EF0006408DB00DC016308DD00DE015D08DE0064
:100F0000DD015B085D04E1005C085E04E200FC308A
:100F1000E105FF30E2056208F901F9076108F8010F
:100F2000F8070A128A119F200A128A117808831280
:100F30000313A3007908A4007A08A5000030A000DC
:100F40008030A1004730A2000A128A111B230A1226
:100F50008A11831203132008B3002108B400220869
:100F6000B500B830B0002F30B1004330B2000A12E3
:100F70008A11D3230A128A11831203133008C30083
:100F80003108C4003208C5006630C0003B30C100E3
:100F9000C230C2000A128A117F250A128A118312F6
:100FA00003134008CD004108CE004208CF000A12CA
:100FB0008A118D220A128A11831203134E08E80146
:100FC000E8074D08E701E7070A128A11B3200A1261
:100FD0008A110A128A11D3200A128A113230F000C3
:100FE0000030F1000A128A113C210A128A119A2E4D
:100FF000E501E601E701E80183010A128A11882E62
:02400E0071FF40
:00000001FF
