:060000000A128A11122809
:10000800FE00030EFA000408FB000A08FC00831235
:1000180003137F08FD000A128A1119280A128A118F
:10002800152883010A128A119528A001A1018B13B2
:100038000C1D4B280C118E018F01E830F0000330A5
:10004800F1001608F301F3071508F201F2070A1286
:100058008A1157200A128A11710883120313A10109
:10006800A1077008A001A0072108F9002008F800DE
:100078000310F80DF90D0310F80DF90D0310F80D24
:10008800F90D7808A0007908A100013085068B17C2
:100098007D08FF007C088A007B0884007A0E8300B4
:1000A800FE0E7E0E0900F501F601710870040319B1
:1000B8008E28F701F70AF11B6D2801300310F00DA7
:1000C800F10DFF3E031D62280130F4007408F707A4
:1000D8005F2801300310F50DF60DFF3E031D6E2855
:1000E80071087302031D7A2870087202031C8328A2
:1000F8007008F2027108031CF303F302751401304F
:100108000310F10CF00CFF3E031D84280130F702A8
:10011800031D6D287608F101F1077508F001F00755
:1001280008000630831603139F00850104308700FA
:1001380083120313051030309000053097008316A2
:1001480003130C15831203130C110B178B171014C0
:02015800AC28D1
:02400E0071FF40
:00000001FF
