:060000000A128A11FC2F18
:100F48001930831603139900181283120313981784
:100F58001813831603131815831203131816831610
:100F680003138601831203138601CF2F0130CE2F7E
:100F78000230CE2F0330CE2F0430CE2F0530CE2FA7
:100F88000630CE2F0730CE2F0830CE2F0930CE2F87
:100F9800B82F0F3086008C1ECF2F1A08F00070086B
:100FA800F1007108003A0319BA2F013A0319BC2F4E
:100FB800033A0319BE2F063A0319C02F013A031941
:100FC800C22F033A0319C42F0E3A0319C62F013A48
:100FD8000319C82F033A0319CA2F063A0319CD2F4C
:100FE800013A0319CC2F033A0319CD2FCF2FCF2F56
:080FF80083010A128A11A42FE3
:02400E0071FF40
:00000001FF
