:060000000A128A11122809
:10000800FE00030EF1000408F2000A08F300831250
:1000180003137F08F4000A128A111B280A128A1196
:100028001528F601F70183010A128A1171288B132A
:100038008B1C61288B1006181F2808080F39F00040
:100048007008F5003E28013038280230382803307F
:100058003828043038280530382806303828073042
:100068003828083038280930F0007008F7005E2872
:10007800F7015E287508003A03192728013A031981
:100088002928033A03192B28063A03192D28013A7F
:1000980003192F28033A031931280E3A0319332874
:1000A800013A03193528033A03193728073A03197F
:1000B8003C285E28061865285E280B1D65280B114C
:1000C80076148B177408FF0073088A00720884007E
:1000D800710E8300FE0E7E0E090083160313850140
:1000E800FF3086008701FF308800831203138501E3
:1000F8008701C4308316031381008B100B160B1174
:100108008B168B177708831287006230A0000030A7
:10011800A1000A128A119E200A128A110130831244
:100128000313A5002508F7070A307702031C862861
:10013800F701862883120313A301A4018312031372
:100148002408803AA2002108803A2202031DAE2822
:100158002008230203180800761CA2280130831205
:100168000313A3070318A40A0030A4077610A228D3
:02400E0071FF40
:00000001FF
