:060000000A128A11122809
:10000800FE00030EF1000408F2000A08F300831250
:1000180003137F08F4000A128A111B280A128A1196
:100028001528F601F70183010A128A116E288B132D
:100038008B1C5E288B1008080F39F0007008F5003B
:100048003C28F7015C280130382802303828033072
:100058003828043038280530382806303828073042
:100068003828083038280930F0007008F7005C2874
:100078007508003A03192528013A03192728033A75
:1000880003192928063A03192B28013A03192D28A0
:10009800033A03192F280E3A03193128013A031994
:1000A8003328033A03193528073A031937285C28F7
:1000B8000B1662280B1D62280B1176148B17740817
:1000C800FF0073088A0072088400710E8300FE0E18
:1000D8007E0E0900831603138501FF308600870111
:1000E800FF3088008312031385018701443083168B
:1000F800031381008B100B160B118B168B177708C7
:10010800831287006230A0000030A1000A128A1111
:100118009B200A128A11013083120313A5002508B7
:10012800F7070A307702031C8328F7018328831214
:100138000313A301A401831203132408803AA20025
:100148002108803A2202031DAB2820082302031845
:100158000800761C9F28013083120313A307031895
:0A016800A40A0030A40776109F28B7
:02400E0071FF40
:00000001FF
