:100000000A128A11FC2F00308A000408840A820731
:10001000003459346F34753420347034723465349C
:1000200073347334653464342034233400345934E5
:100030006F347534203470347234653473347334EF
:100040006534643420342A34003459346F347534C0
:1000500020347034723465347334733465346434EA
:1000600020343034003459346F34753420347034D3
:100070007234653473347334653464342034313409
:10008000003459346F34753420347034723465342C
:100090007334733465346434203432340034593466
:1000A0006F3475342034703472346534733473347F
:1000B0006534643420343334003459346F34753447
:1000C000203470347234653473347334653464347A
:1000D00020343434003459346F347534203470345F
:1000E0007234653473347334653464342034353495
:1000F000003459346F3475342034703472346534BC
:1001000073347334653464342034363400345934F1
:100110006F3475342034703472346534733473340E
:100120006534643420343734003459346F347534D2
:100130002034703472346534733473346534643409
:1001400020343834003459346F34753420347034EA
:100150007234653473347334653464342034393420
:02016000003469
:100E6000F000831203130C1E312F70089900080044
:100E7000F300F2017208730784000A128A1103203A
:100E80000A128A11003803190800720873078400D7
:100E90000A128A1103200A128A110A128A113027B3
:100EA0000A128A110130F1007108F2073A2FFF305F
:100EB0008316031386001930990018121815181399
:100EC0009816831203139817F72F06080F39F400AA
:100ED0007408F600760875060319F32F7608F400F7
:100EE0007408F500C72F2B300A128A1138270A120E
:100EF0008A11ED2F39300A128A1138270A128A1105
:100F0000ED2F47300A128A1138270A128A11ED2F65
:100F100055300A128A1138270A128A11ED2F6330D0
:100F20000A128A1138270A128A11ED2F71300A121B
:100F30008A1138270A128A11ED2F7F300A128A117E
:100F400038270A128A11ED2F8D300A128A1138279C
:100F50000A128A11ED2F9B300A128A1138270A12C1
:100F60008A11ED2F0F300A128A1138270A128A11BE
:100F7000ED2F1D300A128A1138270A128A11ED2F1F
:100F800001300A128A1138270A128A11ED2F7608C9
:100F9000003A0319732F013A03197A2F033A031900
:100FA000812F063A0319882F013A03198F2F033A2C
:100FB0000319962F0E3A03199D2F013A0319A42FF6
:100FC000033A0319AB2F063A0319B22F013A03195A
:100FD000B92F033A0319C02FED2F0A300A128A11D4
:100FE00030270A128A1183120313061A652FFF3065
:100FF000F4007408F500F32F83010A128A11572FA9
:02400E0071FF40
:00000001FF
