:100000000A128A11FC2F00308A000408840A820731
:100010000034483445344C344C344F342034573455
:100020004F3452344C344434213400345034493445
:100030004334313436344634383437343734413449
:0200400000348A
:100E8800F5007508831203138600071007118714ED
:100E980001300A128A118C270A128A11831203134D
:100EA800871001300A128A118C270800F50075088E
:100EB80083120313860007140711871401300A12DE
:100EC8008A118C270A128A118312031387100130A2
:100ED8000A128A118C270800F700770884000A1282
:100EE8008A1103200A128A110038031908007708AA
:100EF80084000A128A1103200A128A110A128A111E
:100F08005A270A128A110130F6007608F707712F5E
:100F1800F1007108F0007008F400F40803190800E3
:100F2800F201F30103307302E83003197202031867
:100F3800AA2F0130F2070318F30A0030F307033031
:100F48007302E83003197202031C9D2F0130F4026A
:100F5800912F8316031386018701831203138601D9
:100F680087010A128A11D3270A128A1180300A12BD
:100F78008A1144270A128A1101300A128A1170272D
:100F88000A128A11C0300A128A1144270A128A11D9
:100F98000E300A128A1170270A128A11D22F1430C1
:100FA8000A128A118C270A128A1138300A128A11F9
:100FB80044270A128A1108300A128A1144270A1291
:100FC8008A1101300A128A1144270A128A1105303F
:100FD8000A128A118C270A128A1106300A128A11FB
:100FE80044270A128A110C300A128A114427080071
:080FF80083010A128A11AD2FDA
:02400E0071FF40
:00000001FF
