:060000000A128A11122809
:10000800FE00030EF4000408F5000A08F600831247
:1000180003137F08F7000A128A1119280A128A1195
:10002800152883010A128A11DF280C1FD428F80129
:10003800F9011E08F200F3017208F8007308F900CC
:100048007908F3007808F2007208F300F2017208E8
:10005800F8007308F9007808831603131E04F200E9
:100068007908F3007208F8007308F900F91B4B28A7
:100078007908803AFF0080307F02031D4528AB30A5
:10008800780203184B28831203138601C5287908C0
:10009800803AFF0080307F02031D5428AB3078027D
:1000A800031C63287908803AFF0081307F02031D12
:1000B8005F2856307802031863280130C22879086F
:1000C800803AFF0081307F02031D6C285630780289
:1000D800031C7B287908803AFF0082307F02031DC9
:1000E80077280030780203187B280330C228790863
:1000F800803AFF0082307F02031D84280030780296
:10010800031C93287908803AFF0082307F02031D80
:100118008F28AB307802031893280730C228790853
:10012800803AFF0082307F02031D9C28AB307802A2
:10013800031CAB287908803AFF0083307F02031D37
:10014800A728563078020318AB280F30C228790840
:10015800803AFF0083307F02031DB42856307802AE
:10016800031CC5287908803AFF0084307F02031DEC
:10017800BF28003078020318C5281F3083120313E4
:100188008600831203130C13E830F0000330F100EB
:100198000A128A1113210A128A11831203131F15D6
:1001A8007708FF0076088A0075088400740E8300BB
:1001B800FE0E7E0E090083160313860183120313B5
:1001C80086018030831603139F00013083120313C6
:1001D8009F000C13831603130C170B178B17E830AB
:1001E80083120313A0000330A1000A128A1102210E
:1001F8000A128A11831203131F150129FF30831273
:100208000313A0070318A10AFF30A107FF30210636
:10021800031D1029FF302006031908000229FF30AA
:10022800F0070318F10AFF30F107FF307106031DCC
:0C0238001F29FF3070060319080013296D
:02400E0071FF40
:00000001FF
