:060000000A128A11122809
:10000800FE00030EF1000408F2000A08F300831250
:1000180003137F08F4000A128A1119280A128A1198
:10002800152883010A128A116A288B138B1C5E28F3
:100038008B1006181D2808080F39F0007008F50005
:100048003C2801303A2802303A2803303A28043054
:100058003A2805303A2806303A2807303A28083036
:100068003A2809303A2887015C280F3087005C2835
:100078007508003A03192528013A03192728033A75
:1000880003192928063A03192B28013A03192D28A0
:10009800033A03192F280E3A03193128013A031994
:1000A8003328033A03193528073A0319372839281A
:1000B800061C5C288B177408FF0073088A007208F6
:1000C8008400710E8300FE0E7E0E0900FF30831639
:1000D800031386008701FF3088008312031387010A
:0E00E8008316031301178B100B168B177A2843
:02400E0071FF40
:00000001FF
