:060000000A128A11122809
:10000800FE00030EF1000408F2000A08F300831250
:1000180003137F08F4000A128A1119280A128A1198
:10002800152883010A128A1167288B138B1C5B28F9
:100038008B1008080F39F0007008F5003A280130D5
:10004800382802303828033038280430382805305A
:10005800382806303828073038280830382809303A
:10006800382887015A280F3087005A287508003A1F
:1000780003192328013A03192528033A03192728C5
:10008800063A03192928013A03192B28033A0319B8
:100098002D280E3A03192F28013A03193128033A5B
:1000A80003193328073A0319352837280B168B17F5
:1000B8007408FF0073088A0072088400710E8300B8
:1000C800FE0E7E0E0900FF3083160313860087019B
:1000D800FF30880083120313870183160313011767
:0800E8008B100B168B17772813
:02400E0071FF40
:00000001FF
