:060000000A128A11122809
:10000800FE00030EF1000408F2000A08F300831250
:1000180003137F08F4000A128A11ED290A128A11C3
:100028001528B001B101B20183010A128A11C12851
:10003800C0300A128A1138220A128A11E830831253
:100048000313A2000330A3002B08A501A5072A0863
:10005800A401A4070A128A1120210A128A11831204
:1000680003132208303E0A128A1148220A128A1102
:10007800643083120313A2000030A3002B08F80198
:10008800F8072A08F701F707E830F5000330F6000B
:100098000A128A1197210A128A1176088312031309
:1000A800A501A5077508A401A4070A128A11202131
:1000B8000A128A11831203132208303E0A128A1187
:1000C80048220A128A110A3083120313A200003050
:1000D800A3002B08F801F8072A08F701F70764308E
:1000E800F5000030F6000A128A1197210A128A11C7
:1000F800760883120313A501A5077508A401A407B0
:100108000A128A1120210A128A1183120313220863
:10011800303E0A128A1148220A128A110A30F50062
:100128000030F600831203132B08F801F8072A0899
:10013800F701F7070A128A1197210A128A1175081E
:10014800303E0A128A1148220A128A116D300A12A8
:100158008A1148220A128A1173300A128A11482217
:100168000A128A1120300A128A1148220A128A11A8
:1001780020300A128A114822080006308316031319
:100188009F00850186010430870088010A128A11C0
:100198000B220A128A1180300A128A1138220A1296
:1001A8008A1101300A128A11CD210A128A113030BF
:1001B80083120313900005309700831603130C1560
:1001C800831203130C110B178B17101483120313CC
:1001D80032080319EA28B201E830A2000330A3006C
:1001E8003108A501A5073008A401A4070A128A113D
:1001F80020210A128A11831203132208AC00230853
:10020800AD000310AC0DAD0D0310AC0DAD0D03101A
:10021800AC0DAD0D2C08AE002D08AF002F08AB01BA
:10022800AB072E08AA01AA070A128A111C200A1273
:100238008A1183120313EA2883120313A701A80162
:100248002308220403195929A901A90AA31B38293B
:1002580001300310A20DA30DFF3E031D2D2901300F
:10026800A6002608A9072A2901300310A70DA80D02
:10027800FF3E031D392923082502031D45292208AD
:100288002402031C4E292208A4022308031CA503E8
:10029800A502271401300310A30CA20CFF3E031D76
:1002A8004F290130A902031D38292808A301A307F3
:1002B8002708A201A207080083120313A000200840
:1002C800F500F6017508A1007608A20022082104AD
:1002D80003190800A301A4012408803AFF00833011
:1002E8007F02031D7929E830230203188E29013083
:1002F80083120313A3070318A40A0030A4072408D1
:10030800803AFF0083307F02031D8C29E8302302E6
:10031800031C7B29FF3083120313A1070318A20AC9
:10032800FF30A2076A29760875040319C6298312C3
:100338000313A101A10AF61BAD2901300310F50D25
:10034800F60DFF3E031DA2290130A0002008A107D9
:100358009F2976087802031DB32975087702031CC4
:10036800BB297508F7027608031CF803F802013068
:100378000310F60CF50CFF3E031DBC290130A10249
:10038800031DAD297808F601F6077708F501F5078A
:10039800080083120313A500250884000A128A1195
:1003A80028220A128A110038031908002508840037
:1003B8000A128A1128220A128A110A128A1148225C
:1003C8000A128A110130F800780883120313A5076E
:1003D800D0298B130C1DFF290C111608B101B10788
:1003E8001508B001B0078E018F010130F0007008C8
:1003F800B200013085068B177408FF0073088A0065
:1004080072088400710E8300FE0E7E0E09003830DB
:100418000A128A1138220A128A1108300A128A111D
:1004280038220A128A1101300A128A1138220A1255
:100438008A1106300A128A1138220A128A110F30DC
:100448000A128A113822080002308A000408840A35
:100458008207003450344534523449344F344434DC
:100468003A34203420340034F70077088312031319
:10047800860008100811881401300A128A116021B8
:100488008312031388100800F700770883120313F8
:10049800860008140811881401300A128A11602194
:0804A800831203138810080001
:02400E0071FF40
:00000001FF
