:060000000A128A11122809
:10000800FE00030EF1000408F2000A08F300831250
:1000180003137F08F4000A128A11EC290A128A11C4
:100028001528B001B101B20183010A128A11C12851
:10003800C0300A128A1137220A128A11E830831254
:100048000313A2000330A3002B08A501A5072A0863
:10005800A401A4070A128A111F210A128A11831205
:1000680003132208303E0A128A1147220A128A1103
:10007800643083120313A2000030A3002B08F80198
:10008800F8072A08F701F707E830F5000330F6000B
:100098000A128A1196210A128A117608831203130A
:1000A800A501A5077508A401A4070A128A111F2132
:1000B8000A128A11831203132208303E0A128A1187
:1000C80047220A128A110A3083120313A200003051
:1000D800A3002B08F801F8072A08F701F70764308E
:1000E800F5000030F6000A128A1196210A128A11C8
:1000F800760883120313A501A5077508A401A407B0
:100108000A128A111F210A128A1183120313220864
:10011800303E0A128A1147220A128A110A30F50063
:100128000030F600831203132B08F801F8072A0899
:10013800F701F7070A128A1196210A128A1175081F
:10014800303E0A128A1147220A128A116D300A12A9
:100158008A1147220A128A1173300A128A11472219
:100168000A128A1120300A128A1147220A128A11A9
:1001780020300A128A11472208000630831603131A
:100188009F00850186010430870088010A128A11C0
:100198000A220A128A1180300A128A1137220A1298
:1001A8008A1101300A128A11CC210A128A113030C0
:1001B80083120313900005309700831603130C1560
:1001C800831203130C110B178B17101483120313CC
:1001D80032080319EA28B201E830A2000330A3006C
:1001E8003108AD003008AC000310AC0DAD0D0310A4
:1001F800AC0DAD0D0310AC0DAD0D2C08A4002D08F1
:10020800A5000A128A111F210A128A1103108312EB
:100218000313220DAE00230DAF002F08AB01AB076F
:100228002E08AA01AA070A128A111C200A128A118A
:1002380083120313EA2883120313A701A8012308D2
:10024800220403195829A901A90AA31B3729013037
:100258000310A20DA30DFF3E031D2C290130A6009B
:100268002608A907292901300310A70DA80DFF3E6C
:10027800031D382923082502031D442922082402C6
:10028800031C4D292208A4022308031CA503A50268
:10029800271401300310A30CA20CFF3E031D4E29A6
:1002A8000130A902031D37292808A301A30727083D
:1002B800A201A207080083120313A0002008F5007A
:1002C800F6017508A1007608A20022082104031986
:1002D8000800A301A4012408803AFF0083307F02AC
:1002E800031D7829E830230203188D290130831271
:1002F8000313A3070318A40A0030A4072408803AAC
:10030800FF0083307F02031D8B29E8302302031C82
:100318007A29FF3083120313A1070318A20AFF30BA
:10032800A2076929760875040319C52983120313DE
:10033800A101A10AF61BAC2901300310F50DF60D39
:10034800FF3E031DA1290130A0002008A1079E2916
:1003580076087802031DB22975087702031CBA29AA
:100368007508F7027608031CF803F8020130031039
:10037800F60CF50CFF3E031DBB290130A102031D3D
:10038800AC297808F601F6077708F501F5070800A3
:1003980083120313A500250884000A128A11272254
:1003A8000A128A11003803190800250884000A1265
:1003B8008A1127220A128A110A128A1147220A125E
:1003C8008A110130F800780883120313A507CF2992
:1003D8008B130C1DFE290C111608B101B107150865
:1003E800B001B0078E018F010130F0007008B20033
:1003F800013085068B177408FF0073088A0072089D
:100408008400710E8300FE0E7E0E090038300A1239
:100418008A1137220A128A1108300A128A113722E1
:100428000A128A1101300A128A1137220A128A1115
:1004380006300A128A1137220A128A110F300A125C
:100448008A113722080002308A000408840A8207C9
:10045800003450344534523449344F3444343A34F7
:10046800203420340034F700770883120313860001
:1004780008100811881401300A128A115F218312AA
:10048800031388100800F700770883120313860007
:1004980008140811881401300A128A115F21831286
:0604A80003138810080098
:02400E0071FF40
:00000001FF
