:100000000A128A11FC2F00308A000408840A820731
:10001000003455344E344934563445345234533414
:1000200049345434593420344F3446340034453440
:100030004E345A344F3420344234413453345534DE
:1000400049344C340034533441344E342034433436
:10005000413452344C344F345334003443345034EC
:0E0060004534203433343234303431340034FB
:100E6400F70077088312031386000710071187140D
:100E740001300A128A119127831203138710080084
:100E8400F7007708831203138600071407118714E9
:100E940001300A128A119127831203138710080064
:100EA400F900790884000A128A1103200A128A11AF
:100EB400003803190800790884000A128A110320F3
:100EC4000A128A110A128A1142270A128A1101305F
:100ED400F8007808F907532FE8300A128A1191278D
:100EE4000A128A1138300A128A1132270A128A1118
:100EF40008300A128A1132270A128A1101300A12A2
:100F04008A1132270A128A1106300A128A113227EC
:100F14000A128A110F300A128A1132270800F200CD
:100F24007208F000F1017008F3007108F40074080D
:100F3400730403190800F501F6017608803AFF00EE
:100F440083307F02031DA82FE83075020318BB2FDE
:100F54000130F5070318F60A0030F6077608803AE0
:100F6400FF0083307F02031DB92FE8307502031C94
:100F7400AA2FFF30F3070318F40AFF30F407992F60
:100F840083160313860187010A128A116E270A1237
:100F94008A1180300A128A1132270A128A110F30FC
:100FA4000A128A1152270A128A11C0300A128A11AF
:100FB40032270A128A1126300A128A1152270A127B
:100FC4008A1194300A128A1132270A128A110130C6
:100FD4000A128A1152270A128A11D4300A128A116B
:100FE40032270A128A111B300A128A1152270A1256
:0C0FF4008A11002883010A128A11C22F02
:02400E0071FF40
:00000001FF
