:060000000A128A11FC2F18
:100EF200F2007208F000F1017008F3007108F400CA
:100F02007408730403190800F501F6017608803AA3
:100F1200FF0083307F02031D902FE8307502031813
:100F2200A32F0130F5070318F60A0030F6077608FA
:100F3200803AFF0083307F02031DA12FE830750243
:100F4200031C922FFF30F3070318F40AFF30F40753
:100F5200812F0630831603139F008501FF3088001E
:100F62008312081EB12F08080F39F7007708F8001E
:100F7200D12F0130CF2F0230CF2F0330CF2F0430AB
:100F8200CF2F0530CF2F0630CF2F0730CF2F08308D
:100F9200CF2F0930CF2F8501F12FFF308500F12FA0
:100FA2007808003A0319BA2F013A0319BC2F033A01
:100FB2000319BE2F063A0319C02F013A0319C22F93
:100FC200033A0319C42F0E3A0319C62F013A031923
:100FD200C82F033A0319CA2F073A0319CC2FCE2F71
:100FE20032300A128A1179270A128A1183120313E4
:0E0FF200081AB12FF72F83010A128A11AA2FB5
:02400E0071FF40
:00000001FF
