:060000000A128A11122809
:10000800FE00030EF1000408F2000A08F300831250
:1000180003137F08F4000A128A111A280A128A1197
:100028001528F70183010A128A116D288B138B1C7E
:100038005D288B1008080F39F0007008F5003B2880
:10004800013039280230392803303928043039285A
:10005800053039280630392807303928083039283A
:100068000930392887015B280F3087005B2875081D
:10007800003A03192428013A03192628033A0319D8
:100088002828063A03192A28013A03192C28033A82
:1000980003192E280E3A03193028013A0319322879
:1000A800033A03193428073A0319362838280B1657
:1000B80061280B1D61280B1177148B177408FF003A
:1000C80073088A0072088400710E8300FE0E7E0E8B
:1000D8000900831603138501FF3086008701FF306E
:1000E80088008312031385018701C4308316031324
:1000F80081008B100B160B118B168B1783120313B1
:1001080005147A30A0000030A1000A128A119B2041
:100118000A128A118312031305107A30A0000030E6
:10012800A1000A128A119B200A128A1182288312BE
:100138000313A201A301831203132308803AF600D4
:100148002108803A7602031DAB28200822020318F2
:100158000800771C9F28013083120313A207031895
:0A016800A30A0030A30777109F28B8
:02400E0071FF40
:00000001FF
