:060000000A128A11122809
:10000800FE00030EF1000408F2000A08F300831250
:1000180003137F08F4000A128A111A280A128A1197
:100028001528F70183010A128A1170288B138B1C7B
:1000380060288B1006181E2808080F39F000700871
:10004800F5003D2801303B2802303B2803303B288F
:1000580004303B2805303B2806303B2807303B2836
:1000680008303B2809303B2887015D280F3087007E
:100078005D287508003A03192628013A031928282B
:10008800033A03192A28063A03192C28013A0319B6
:100098002E28033A031930280E3A03193228013A58
:1000A80003193428033A03193628073A031938285C
:1000B8003A28061864285D280B1D64280B1177144C
:1000C8008B177408FF0073088A0072088400710E89
:1000D8008300FE0E7E0E0900831603138501FF3090
:1000E80086008701FF30880083120313850187018A
:1000F800C4308316031381008B100B160B118B165B
:100108008B17831205147A30A0000030A1000A1260
:100118008A1194200A128A11831203130510852864
:1001280083120313A201A301831203132308803A45
:10013800F6002108803A7602031DA428200822022E
:1001480003180800771C9828013083120313A207AC
:0C0158000318A30A0030A30777109828B2
:02400E0071FF40
:00000001FF
