:060000000A128A11122809
:10000800FE00030EF0000408F1000A08F200831253
:1000180003137F08F3000A128A11302A0A128A1180
:100028001528CB01CC01CD01CE01CF01D001D101E2
:10003800D201D30183010A128A119329831203136F
:100048005108013E84000A128A118E220A128A116E
:10005800B5003508C900121197010711D208031D10
:10006800BC28D301F930C5000030C6000030AB0011
:100078000030AA000030A9006430A8004908B50083
:10008800B601B701B8013808A3003708A20036083E
:10009800A1003508A0004508013EB900460803182C
:1000A800013E003EBA003908BB003A08BC00BD0159
:1000B800BE0102300310BB0DBC0DBD0DBE0DFF3ED1
:1000C800031D5E283E08A7003D08A6003C08A500C1
:1000D8003B08A4000A128A11EF210A128A1183121E
:1000E80003132308AF002208AE002108AD00200842
:1000F800AC000A128A1133210A128A1183120313DF
:100108002B08C4002A08C3002908C2002808C10017
:1001180005309200450883160313920083120313D7
:100128004108B5004208B6004308B7004408B800C3
:1001380002300310B80CB70CB60CB50CFF3E031D0B
:100148009D283508950041080339B5000330031090
:10015800B50DFF3E031DAB280310350D0C38970075
:100168008316031307118C1083120313121508004A
:100178000130B5003508D3005208013A0319C628E2
:10018800C830C7281430C7000030C8000030AB00A2
:100198000030AA000030A9006430A8004908B50062
:1001A800B601B701B8013808A3003708A20036081D
:1001B800A1003508A0004708A4004808A500A6012A
:1001C800A7010A128A11EF210A128A118312031356
:1001D8002308AF002208AE002108AD002008AC00BB
:1001E8000A128A1133210A128A1183120313290869
:1001F800C001C0072808BF01BF074908643A031DAA
:100208000B294808C001C0074708BF01BF074808B5
:10021800CE01CE074708CD01CD074008CC01CC0759
:100228003F08CB01CB07CF01D001970183160313F9
:100238000711831203130715053092007C308316CB
:10024800031392008312031391018C108316031376
:100258008C140B178B178312031312150800003028
:1002680083120313B3000030B2000030B100003035
:10027800B0002B082A042904280403198A29B40188
:10028800B40AAB1B55290130F9000310A80DA90DBC
:10029800AA0DAB0DF90B49290130F9007908B4070B
:1002A80045290130F9000310B00DB10DB20DB30DA1
:1002B800F90B57292B082F02031D6C292A082E0237
:1002C800031D6C2929082D02031D6C2928082C02FE
:1002D800031C7D292808AC022908031C290FAD023C
:1002E8002A08031C2A0FAE022B08031C2B0FAF028F
:1002F800301401300310AB0CAA0CA90CA80CFF3E5B
:10030800031D7E290130B402031D55293308AB00B3
:100318003208AA003108A9003008A80008000630F1
:10032800831603139F00033086008701831203138B
:1003380007110A128A1122200A128A11CA29323098
:10034800F4000030F5000A128A1167220A128A1195
:1003580083120313061CCA290130CA004A08D207AF
:10036800033052020318D2010A128A1122200A12FB
:100378008A11831203130618BD293230F4000030A5
:10038800F5000A128A1167220A128A1183120313CE
:100398000618A329861CCA293230F4000030F5005B
:1003A8000A128A1167220A128A1183120313861C01
:1003B800CA290130CA004A08D1070530510203187A
:1003C800D1010A128A1122200A128A1183120313F8
:1003D8008618EA29C1290030F8000030F7000030FB
:1003E800F6000030F50083120313201C0F2A24089E
:1003F800F507250803110318013E031DF607260813
:1004080003110318013E031DF707270803110318FA
:10041800013E031DF8070130F4000310A40DA50DDB
:10042800A60DA70DF40B112A01300310A30CA20C82
:10043800A10CA00CFF3E031D192A23082204210445
:100448002004031DF7297808A3007708A20076087E
:10045800A1007508A00008008C1C5B2A83160313F2
:100468008C1C5B2A831203138C10530803195B2A14
:100478000130CF070318D00A0030D0074E085002C9
:10048800031D482A4D084F02031C4C2ACF01D001F6
:100498004C085002031D522A4B084F020318582AD1
:1004A8008312031307155B2A8312031307117308BA
:1004B8008312FF0072088A0071088400700E83009E
:1004C800FE0E7E0E09007508F701F7077408F6019D
:1004D800F6077708760403190800F801F9010030D7
:1004E80079026E30031978020318872A0130F80759
:1004F8000318F90A0030F907003079026E30031941
:100508007802031C7A2A0130F6020030031CF70334
:10051800F7026D2A02308A000408840A8207003430
:0A0528000A34193432344B346434C1
:02400E0071FF40
:00000001FF
