:100000000A128A11FA2F00308A000408840A820733
:1000100000340A34193432344B345F34F9347C34CC
:020020003E346C
:100D4C00F401F501701CB02E7208F4070318F50AB3
:100D5C007308F50701300310F20DF30DFF3E031D70
:100D6C00B12E01300310F10CF00CFF3E031DB82E18
:100D7C0071087004031DA82E7508F101F1077408A1
:100D8C00F001F00708007108F301F3077008F20195
:100D9C00F2077308720403190800F401F50100301E
:100DAC0075026E30031974020318E92E0130F40732
:100DBC000318F50A0030F507003075026E30031980
:100DCC007402031CDC2E0130F2020030031CF3030E
:100DDC00F302CF2EFB01FC01770876040319272FB1
:100DEC00FD01FD0AF71B062F01300310F60DF70D60
:100DFC00FF3E031DFB2E0130FA007A08FD07F82E8A
:100E0C0001300310FB0DFC0DFF3E031D072F77086F
:100E1C007902031D132F76087802031C1C2F760809
:100E2C00F8027708031CF903F9027B140130031054
:100E3C00F70CF60CFF3E031D1D2F0130FD02031DA8
:100E4C00062F7C08F701F7077B08F601F607080068
:100E5C000630831603139F0003308600870183122C
:100E6C0003130711063092000A128A118C270A12FA
:100E7C008A11672F3230F0000030F1000A128A110B
:100E8C00C9260A128A1183120313061C672F01301C
:100E9C00A8002808AA0703302A020318AA010A127C
:100EAC008A118C270A128A118312031306185A2FDF
:100EBC003230F0000030F1000A128A11C9260A12F1
:100ECC008A11831203130618402F861C672F3230A9
:100EDC00F0000030F1000A128A11C9260A128A1198
:100EEC0083120313861C672F0130A8002808A9075A
:100EFC00053029020318A9010A128A118C270A123B
:100F0C008A11831203138618872F5E2F8312031303
:100F1C002A08063E84000A128A1103200A128A113A
:100F2C00A0002008A7002908013E84000A128A119B
:100F3C0003200A128A11A0002008A4006430F600D5
:100F4C000030F7002708A000A1010310A00DA10D8F
:100F5C000310A00DA10D2008043EF0002108031879
:100F6C00013E003EF1002408A200A3012208F20079
:100F7C002308F3000A128A11A6260A128A11710894
:100F8C00F901F9077008F801F8070A128A11F0261E
:100F9C000A128A11770883120313A601A607760892
:100FAC00A501A507121127088316031392008312BB
:100FBC0003132608A1002508A0000310A10CA00C07
:100FCC000310A10CA00C2008950025080339A000E3
:100FDC0003300310A00DFF3E031DEF2F0310200D57
:100FEC000C38970012150800A901AA0183010A12F6
:040FFC008A112E2FF9
:02400E0071FF40
:00000001FF
